{
  "_format": "hh-sol-artifact-1",
  "contractName": "BlockchainVoting",
  "sourceName": "contracts/BlockchainVoting.sol",
  "abi": [
    {
      "inputs": [],
      "stateMutability": "nonpayable",
      "type": "constructor"
    },
    {
      "inputs": [],
      "name": "_AlreadyVoted",
      "type": "error"
    },
    {
      "inputs": [],
      "name": "_CandidateAlreadyExit",
      "type": "error"
    },
    {
      "inputs": [],
      "name": "_CandidateNotVoteItSlef",
      "type": "error"
    },
    {
      "inputs": [
        {
          "internalType": "address",
          "name": "_requestAddress",
          "type": "address"
        },
        {
          "internalType": "string",
          "name": "_name",
          "type": "string"
        }
      ],
      "name": "RequestForNextVoting",
      "outputs": [],
      "stateMutability": "nonpayable",
      "type": "function"
    },
    {
      "inputs": [
        {
          "internalType": "address",
          "name": "_Address",
          "type": "address"
        },
        {
          "internalType": "string",
          "name": "_name",
          "type": "string"
        }
      ],
      "name": "SetCandidate",
      "outputs": [],
      "stateMutability": "nonpayable",
      "type": "function"
    },
    {
      "inputs": [
        {
          "internalType": "uint256",
          "name": "_Id",
          "type": "uint256"
        },
        {
          "internalType": "string",
          "name": "_name",
          "type": "string"
        },
        {
          "internalType": "address",
          "name": "_voterAddress",
          "type": "address"
        },
        {
          "internalType": "address",
          "name": "_CandidateAddress",
          "type": "address"
        }
      ],
      "name": "SetVote",
      "outputs": [],
      "stateMutability": "nonpayable",
      "type": "function"
    },
    {
      "inputs": [],
      "name": "getCandidate",
      "outputs": [
        {
          "components": [
            {
              "internalType": "string",
              "name": "name",
              "type": "string"
            },
            {
              "internalType": "address",
              "name": "_CandidateAddress",
              "type": "address"
            },
            {
              "internalType": "uint256",
              "name": "vote",
              "type": "uint256"
            }
          ],
          "internalType": "struct BlockchainVoting.Candidate[]",
          "name": "",
          "type": "tuple[]"
        }
      ],
      "stateMutability": "view",
      "type": "function"
    },
    {
      "inputs": [],
      "name": "getRequestPropsal",
      "outputs": [
        {
          "components": [
            {
              "internalType": "string",
              "name": "name",
              "type": "string"
            },
            {
              "internalType": "address",
              "name": "_CandidateAddress",
              "type": "address"
            }
          ],
          "internalType": "struct BlockchainVoting.propsal[]",
          "name": "",
          "type": "tuple[]"
        }
      ],
      "stateMutability": "view",
      "type": "function"
    },
    {
      "inputs": [],
      "name": "getVoter",
      "outputs": [
        {
          "components": [
            {
              "internalType": "uint256",
              "name": "Id",
              "type": "uint256"
            },
            {
              "internalType": "string",
              "name": "name",
              "type": "string"
            },
            {
              "internalType": "address",
              "name": "voterAddress",
              "type": "address"
            },
            {
              "internalType": "address",
              "name": "_CandidateAddress",
              "type": "address"
            }
          ],
          "internalType": "struct BlockchainVoting.voter[]",
          "name": "",
          "type": "tuple[]"
        }
      ],
      "stateMutability": "view",
      "type": "function"
    }
  ],
  "bytecode": "0x608060405234801561001057600080fd5b50336000806101000a81548173ffffffffffffffffffffffffffffffffffffffff021916908373ffffffffffffffffffffffffffffffffffffffff1602179055506117ac806100606000396000f3fe608060405234801561001057600080fd5b50600436106100625760003560e01c80632b37f53c146100675780634db830c01461008557806350c7ef6c146100a157806370218b85146100bf5780638cd4c7aa146100dd578063ff404bc5146100f9575b600080fd5b61006f610115565b60405161007c9190610e58565b60405180910390f35b61009f600480360381019061009a919061101b565b6102bc565b005b6100a96106f0565b6040516100b6919061119d565b60405180910390f35b6100c7610837565b6040516100d491906112d1565b60405180910390f35b6100f760048036038101906100f291906112f3565b610988565b005b610113600480360381019061010e91906112f3565b610b90565b005b60606003805480602002602001604051908101604052809291908181526020016000905b828210156102b35783829060005260206000209060040201604051806080016040529081600082015481526020016001820180546101769061137e565b80601f01602080910402602001604051908101604052809291908181526020018280546101a29061137e565b80156101ef5780601f106101c4576101008083540402835291602001916101ef565b820191906000526020600020905b8154815290600101906020018083116101d257829003601f168201915b505050505081526020016002820160009054906101000a900473ffffffffffffffffffffffffffffffffffffffff1673ffffffffffffffffffffffffffffffffffffffff1673ffffffffffffffffffffffffffffffffffffffff1681526020016003820160009054906101000a900473ffffffffffffffffffffffffffffffffffffffff1673ffffffffffffffffffffffffffffffffffffffff1673ffffffffffffffffffffffffffffffffffffffff168152505081526020019060010190610139565b50505050905090565b60026004805490501015610305576040517f08c379a00000000000000000000000000000000000000000000000000000000081526004016102fc90611432565b60405180910390fd5b60005b60038054905081101561040357846003828154811061032a57610329611452565b5b9060005260206000209060040201600001541480156103b957508273ffffffffffffffffffffffffffffffffffffffff166003828154811061036f5761036e611452565b5b906000526020600020906004020160020160009054906101000a900473ffffffffffffffffffffffffffffffffffffffff1673ffffffffffffffffffffffffffffffffffffffff16145b156103f0576040517f212bc1a700000000000000000000000000000000000000000000000000000000815260040160405180910390fd5b80806103fb906114b0565b915050610308565b5060005b6004805490508110156104d1578273ffffffffffffffffffffffffffffffffffffffff166004828154811061043f5761043e611452565b5b906000526020600020906003020160010160009054906101000a900473ffffffffffffffffffffffffffffffffffffffff1673ffffffffffffffffffffffffffffffffffffffff16036104be576040517f0231a24900000000000000000000000000000000000000000000000000000000815260040160405180910390fd5b80806104c9906114b0565b915050610407565b5060005b6004805490508110156106e9578173ffffffffffffffffffffffffffffffffffffffff166004828154811061050d5761050c611452565b5b906000526020600020906003020160010160009054906101000a900473ffffffffffffffffffffffffffffffffffffffff1673ffffffffffffffffffffffffffffffffffffffff16036106d6576004818154811061056e5761056d611452565b5b90600052602060002090600302016002016000815480929190610590906114b0565b9190505550600360405180608001604052808781526020018681526020018573ffffffffffffffffffffffffffffffffffffffff1681526020018473ffffffffffffffffffffffffffffffffffffffff16815250908060018154018082558091505060019003906000526020600020906004020160009091909190915060008201518160000155602082015181600101908161062c91906116a4565b5060408201518160020160006101000a81548173ffffffffffffffffffffffffffffffffffffffff021916908373ffffffffffffffffffffffffffffffffffffffff16021790555060608201518160030160006101000a81548173ffffffffffffffffffffffffffffffffffffffff021916908373ffffffffffffffffffffffffffffffffffffffff1602179055505050600260008154809291906106d0906114b0565b91905055505b80806106e1906114b0565b9150506104d5565b5050505050565b60606005805480602002602001604051908101604052809291908181526020016000905b8282101561082e57838290600052602060002090600202016040518060400160405290816000820180546107479061137e565b80601f01602080910402602001604051908101604052809291908181526020018280546107739061137e565b80156107c05780601f10610795576101008083540402835291602001916107c0565b820191906000526020600020905b8154815290600101906020018083116107a357829003601f168201915b505050505081526020016001820160009054906101000a900473ffffffffffffffffffffffffffffffffffffffff1673ffffffffffffffffffffffffffffffffffffffff1673ffffffffffffffffffffffffffffffffffffffff168152505081526020019060010190610714565b50505050905090565b60606004805480602002602001604051908101604052809291908181526020016000905b8282101561097f578382906000526020600020906003020160405180606001604052908160008201805461088e9061137e565b80601f01602080910402602001604051908101604052809291908181526020018280546108ba9061137e565b80156109075780601f106108dc57610100808354040283529160200191610907565b820191906000526020600020905b8154815290600101906020018083116108ea57829003601f168201915b505050505081526020016001820160009054906101000a900473ffffffffffffffffffffffffffffffffffffffff1673ffffffffffffffffffffffffffffffffffffffff1673ffffffffffffffffffffffffffffffffffffffff1681526020016002820154815250508152602001906001019061085b565b50505050905090565b60008054906101000a900473ffffffffffffffffffffffffffffffffffffffff1673ffffffffffffffffffffffffffffffffffffffff163373ffffffffffffffffffffffffffffffffffffffff16146109e057600080fd5b60005b600480549050811015610aad578273ffffffffffffffffffffffffffffffffffffffff1660048281548110610a1b57610a1a611452565b5b906000526020600020906003020160010160009054906101000a900473ffffffffffffffffffffffffffffffffffffffff1673ffffffffffffffffffffffffffffffffffffffff1603610a9a576040517f1e43c59000000000000000000000000000000000000000000000000000000000815260040160405180910390fd5b8080610aa5906114b0565b9150506109e3565b50600460405180606001604052808381526020018473ffffffffffffffffffffffffffffffffffffffff168152602001600081525090806001815401808255809150506001900390600052602060002090600302016000909190919091506000820151816000019081610b2091906116a4565b5060208201518160010160006101000a81548173ffffffffffffffffffffffffffffffffffffffff021916908373ffffffffffffffffffffffffffffffffffffffff16021790555060408201518160020155505060016000815480929190610b87906114b0565b91905055505050565b600560405180604001604052808381526020018473ffffffffffffffffffffffffffffffffffffffff1681525090806001815401808255809150506001900390600052602060002090600202016000909190919091506000820151816000019081610bfb91906116a4565b5060208201518160010160006101000a81548173ffffffffffffffffffffffffffffffffffffffff021916908373ffffffffffffffffffffffffffffffffffffffff16021790555050505050565b600081519050919050565b600082825260208201905092915050565b6000819050602082019050919050565b6000819050919050565b610c8881610c75565b82525050565b600081519050919050565b600082825260208201905092915050565b60005b83811015610cc8578082015181840152602081019050610cad565b60008484015250505050565b6000601f19601f8301169050919050565b6000610cf082610c8e565b610cfa8185610c99565b9350610d0a818560208601610caa565b610d1381610cd4565b840191505092915050565b600073ffffffffffffffffffffffffffffffffffffffff82169050919050565b6000610d4982610d1e565b9050919050565b610d5981610d3e565b82525050565b6000608083016000830151610d776000860182610c7f565b5060208301518482036020860152610d8f8282610ce5565b9150506040830151610da46040860182610d50565b506060830151610db76060860182610d50565b508091505092915050565b6000610dce8383610d5f565b905092915050565b6000602082019050919050565b6000610dee82610c49565b610df88185610c54565b935083602082028501610e0a85610c65565b8060005b85811015610e465784840389528151610e278582610dc2565b9450610e3283610dd6565b925060208a01995050600181019050610e0e565b50829750879550505050505092915050565b60006020820190508181036000830152610e728184610de3565b905092915050565b6000604051905090565b600080fd5b600080fd5b610e9781610c75565b8114610ea257600080fd5b50565b600081359050610eb481610e8e565b92915050565b600080fd5b600080fd5b7f4e487b7100000000000000000000000000000000000000000000000000000000600052604160045260246000fd5b610efc82610cd4565b810181811067ffffffffffffffff82111715610f1b57610f1a610ec4565b5b80604052505050565b6000610f2e610e7a565b9050610f3a8282610ef3565b919050565b600067ffffffffffffffff821115610f5a57610f59610ec4565b5b610f6382610cd4565b9050602081019050919050565b82818337600083830152505050565b6000610f92610f8d84610f3f565b610f24565b905082815260208101848484011115610fae57610fad610ebf565b5b610fb9848285610f70565b509392505050565b600082601f830112610fd657610fd5610eba565b5b8135610fe6848260208601610f7f565b91505092915050565b610ff881610d3e565b811461100357600080fd5b50565b60008135905061101581610fef565b92915050565b6000806000806080858703121561103557611034610e84565b5b600061104387828801610ea5565b945050602085013567ffffffffffffffff81111561106457611063610e89565b5b61107087828801610fc1565b935050604061108187828801611006565b925050606061109287828801611006565b91505092959194509250565b600081519050919050565b600082825260208201905092915050565b6000819050602082019050919050565b600060408301600083015184820360008601526110e78282610ce5565b91505060208301516110fc6020860182610d50565b508091505092915050565b600061111383836110ca565b905092915050565b6000602082019050919050565b60006111338261109e565b61113d81856110a9565b93508360208202850161114f856110ba565b8060005b8581101561118b578484038952815161116c8582611107565b94506111778361111b565b925060208a01995050600181019050611153565b50829750879550505050505092915050565b600060208201905081810360008301526111b78184611128565b905092915050565b600081519050919050565b600082825260208201905092915050565b6000819050602082019050919050565b600060608301600083015184820360008601526112088282610ce5565b915050602083015161121d6020860182610d50565b5060408301516112306040860182610c7f565b508091505092915050565b600061124783836111eb565b905092915050565b6000602082019050919050565b6000611267826111bf565b61127181856111ca565b935083602082028501611283856111db565b8060005b858110156112bf57848403895281516112a0858261123b565b94506112ab8361124f565b925060208a01995050600181019050611287565b50829750879550505050505092915050565b600060208201905081810360008301526112eb818461125c565b905092915050565b6000806040838503121561130a57611309610e84565b5b600061131885828601611006565b925050602083013567ffffffffffffffff81111561133957611338610e89565b5b61134585828601610fc1565b9150509250929050565b7f4e487b7100000000000000000000000000000000000000000000000000000000600052602260045260246000fd5b6000600282049050600182168061139657607f821691505b6020821081036113a9576113a861134f565b5b50919050565b600082825260208201905092915050565b7f43616e646964617465202067726561746572207468656e2032206f72204d757360008201527f7420426520322000000000000000000000000000000000000000000000000000602082015250565b600061141c6027836113af565b9150611427826113c0565b604082019050919050565b6000602082019050818103600083015261144b8161140f565b9050919050565b7f4e487b7100000000000000000000000000000000000000000000000000000000600052603260045260246000fd5b7f4e487b7100000000000000000000000000000000000000000000000000000000600052601160045260246000fd5b60006114bb82610c75565b91507fffffffffffffffffffffffffffffffffffffffffffffffffffffffffffffffff82036114ed576114ec611481565b5b600182019050919050565b60008190508160005260206000209050919050565b60006020601f8301049050919050565b600082821b905092915050565b60006008830261155a7fffffffffffffffffffffffffffffffffffffffffffffffffffffffffffffffff8261151d565b611564868361151d565b95508019841693508086168417925050509392505050565b6000819050919050565b60006115a161159c61159784610c75565b61157c565b610c75565b9050919050565b6000819050919050565b6115bb83611586565b6115cf6115c7826115a8565b84845461152a565b825550505050565b600090565b6115e46115d7565b6115ef8184846115b2565b505050565b5b81811015611613576116086000826115dc565b6001810190506115f5565b5050565b601f82111561165857611629816114f8565b6116328461150d565b81016020851015611641578190505b61165561164d8561150d565b8301826115f4565b50505b505050565b600082821c905092915050565b600061167b6000198460080261165d565b1980831691505092915050565b6000611694838361166a565b9150826002028217905092915050565b6116ad82610c8e565b67ffffffffffffffff8111156116c6576116c5610ec4565b5b6116d0825461137e565b6116db828285611617565b600060209050601f83116001811461170e57600084156116fc578287015190505b6117068582611688565b86555061176e565b601f19841661171c866114f8565b60005b828110156117445784890151825560018201915060208501945060208101905061171f565b86831015611761578489015161175d601f89168261166a565b8355505b6001600288020188555050505b50505050505056fea264697066735822122091e950c57ad3c75b5c450246e799c9c431ae467c35921976c878fd257764e7bc64736f6c63430008120033",
  "linkReferences": {},
  "deployedLinkReferences": {}
}